:04000000C8EF06F04F
:10080000004E6976656C3A20000002BE05D00250A9
:1008100006E10104D8B003D00468056805D0000ED5
:10082000056E010E046E00D002AE05D0016C021EF2
:10083000D8B0022A00D0000E076E000E066E6AD0F5
:1008400005BE35D0055003E10404D8A030D0838024
:100850008392839483961A0E036EF80EE82EFED7C9
:10086000032EFCD700D083908382839483961A0E44
:10087000036EF80EE82EFED7032EFCD700D083902F
:100880008392838483961A0E036EF80EE82EFED7A9
:10089000032EFCD700D083908392839483861A0E14
:1008A000036EF80EE82EFED7032EFCD72FD08390D0
:1008B0008392839483861A0E036EF80EE82EFED779
:1008C000032EFCD700D083908392838483961A0EE4
:1008D000036EF80EE82EFED7032EFCD700D08390CF
:1008E0008382839483961A0E036EF80EE82EFED749
:1008F000032EFCD700D083808392839483961A0EB4
:10090000036EF80EE82EFED7032EFCD700D000D0E1
:10091000064A072A0150065C0750800A036E0250FF
:10092000800A0358D8A08CD71200036E828003C0BF
:1009300001F0013A0F0E0116010E011601460146A3
:1009400082500118FB0B0118826E03C001F0050EE6
:10095000026ED8900132022EFCD7010E011601461C
:100960000146014682500118F70B0118826E03C040
:1009700001F0060E026ED8900132022EFCD7010E55
:100980000116013A82500118EF0B0118826E016ABC
:1009900003AE01D0012A010E0116013A0146825030
:1009A0000118DF0B0118826EBDEC06F003C001F0E8
:1009B000010E01160146014682500118FB0B011879
:1009C000826E03C001F0D8900132010E011601467B
:1009D0000146014682500118F70B0118826E03C0D0
:1009E00001F0D8900132D8900132010E0116013A7F
:1009F00082500118EF0B0118826E03C001F0D890ED
:100A00000132D8900132D8900132010E0116013A1C
:100A1000014682500118DF0B0118826EBDEC06F012
:100A20001200036E829003C001F0013A0F0E01160E
:100A3000010E01160146014682500118FB0B0118F8
:100A4000826E03C001F0050E026ED8900132022EB4
:100A5000FCD7010E011601460146014682500118DD
:100A6000F70B0118826E03C001F0060E026ED890DB
:100A70000132022EFCD7010E0116013A82500118F4
:100A8000EF0B0118826E016A03AE01D0012A010E3C
:100A90000116013A014682500118DF0B0118826EDF
:100AA000BDEC06F003C001F0010E0116014601463F
:100AB00082500118FB0B0118826E03C001F0D89020
:100AC0000132010E0116014601460146825001180D
:100AD000F70B0118826E03C001F0D8900132D89054
:100AE0000132010E0116013A82500118EF0B011874
:100AF000826E03C001F0D8900132D8900132D890B4
:100B00000132010E0116013A014682500118DF0B35
:100B10000118826EBDEC06F012000F0E926EF00E00
:100B2000936E4CEC06F0D4EC06F0000E126E000E44
:100B3000116E11C001F012C002F0D9EC06F000D025
:100B4000F7EC05F00E6E0E50D8B4FAD7D00E0E2486
:100B50000F6E106AFF0E102210BEF2D710BE06D024
:100B60001050EEE10A0E0F5CD8B0EAD711C00AF0BF
:100B700012C00BF00A1E0B1E0A4A0B2A0F500A2441
:100B8000016E10500B20026E000E046E640E036E98
:100B90009DEC06F001C00CF002C00DF00CC001F09D
:100BA0000DC002F005EC04F00FC011F010C012F0FF
:100BB00011C001F012C002F0D9EC06F0B1EC06F061
:100BC000000E056E010E046E000E076E010E066E1D
:100BD0006DEC06F0010E046E080E056E87EC06F053
:100BE0001150300FCFEC06F0ABD700EF00F0000E45
:100BF000036E000E056E000E046E05BE08D0055093
:100C000048E1040E045CD8B044D001D042D004C006
:100C100001F0010E026E012A02D0D8900236012E98
:100C2000FCD70250F009936E04C001F0010E026E71
:100C3000012A02D0D8900236012EFCD70250FF0ABA
:100C40008A6E340E016EF20EE82EFED7012EFCD70E
:100C500080B004D00450310F036E00D080B204D0B5
:100C60000450340F036E00D080B404D00450370F0A
:100C7000036E00D080B604D004502A0F036E00D05B
:100C80000350D8A406D001D004D0044A052AB5D711
:100C900000D0035000D01200000E946E340E046E8B
:100CA000F20EE82EFED7042EFCD7020E11EC05F052
:100CB000280E11EC05F00C0E11EC05F0060E11ECEF
:100CC00005F0010E11EC05F0060E046E300EE82E54
:100CD000FED7042EFCD700D01200000E096E000EC5
:100CE000086E04040510D8A402D07F0E06D0020EB0
:100CF00004180510D8A407D0BF0E0624086E000EF5
:100D00000720096E00D0085011EC05F012000BD03E
:100D100004C0F6FF05C0F7FF0800F55095EC04F09D
:100D2000044A052A00D004C0F6FF05C0F7FF0800FA
:100D3000F5500009D8A4ECD7120001500302F3CFFC
:100D400005F0F4CF06F001500402F35006260250DD
:100D50000302F350062605C001F006C002F000D0E1
:100D60001200010E11EC05F0060E046E300EE82E96
:100D7000FED7042EFCD700D0120082821A0EE82E75
:100D8000FED700D082921A0EE82EFED700D01200B5
:100D9000000EF86E080EF76E00018DEF05F0046E80
:100DA000045095EC04F01200000E956E000E8C6E4F
:0A0DB000120001500F0B8C6E1200B0
:020000040020DA
:08000000FFFFFFFFFFFFFFFF00
:020000040030CA
:0E000000240E3E1EFF8181FF0FC00FE00F4057
:00000001FF
