:0400000099EF06F07E
:10080000003132334134353642373839432A3023C8
:1008100044456C657661746F72205265616479003D
:100820004E6976656C3A2025630A004E6976656CE0
:100830003A200000010EF66E080EF76E20EE05F06D
:100840000F0E0900F5CFDEFFE806FBE2000E166E84
:10085000000E156E16BE08D016505CE1040E155C35
:10086000D8B058D001D056D015C001F0010E026E9C
:10087000012A02D0D8900236012EFCD70250FF0A7E
:100880008B6E410E016EEE0EE82EFED7012EFCD7C8
:1008900000D0000E186E000E176E18BE08D018504B
:1008A00035E1040E175CD8B031D001D02FD017C07D
:1008B00001F0040E0126010E026E012A02D0D8902A
:1008C0000236012EFCD7025082140009D8A41AD097
:1008D00017C001F018C002F0D89001360236D89047
:1008E00001360236050E036E000E046E015003261B
:1008F0000250042215500324D96E16500420DA6EDB
:10090000DF500AD0174A182AC8D700D0154A162A2D
:10091000A1D700D0000E00D01200036E8C8003C05F
:1009200001F0013A0F0E01160130D8B002D08C94BC
:1009300001D08C8403C001F0050E026ED890013204
:10094000022EFCD70130D8B002D08C9601D08C8614
:1009500003C001F0060E026ED8900132022EFCD7C1
:100960000130D8B002D08C9801D08C88016A03AED7
:1009700001D0012A0130D8B002D08C9A01D08C8AE3
:100980008C8200F000D000D08C92FA0E00F0E82E9D
:10099000FDD703B002D08C9401D08C8403C001F049
:1009A000D89001320130D8B002D08C9601D08C861C
:1009B00003C001F0D8900132D89001320130D8B094
:1009C00002D08C9801D08C8803C001F0D8900132FD
:1009D000D8900132D89001320130D8B002D08C9A30
:1009E00001D08C8A8C8200F000D000D08C920D0E49
:1009F000016EFC0EE82EFED7012EFCD71200036E0E
:100A00008C9003C001F0013A0F0E01160130D8B0EE
:100A100002D08C9401D08C8403C001F0050E026ECC
:100A2000D8900132022EFCD70130D8B002D08C967B
:100A300001D08C8603C001F0060E026ED890013200
:100A4000022EFCD70130D8B002D08C9801D08C880F
:100A5000016A03AE01D0012A0130D8B002D08C9ACD
:100A600001D08C8A8C8200F000D000D08C92FA0EDB
:100A700000F0E82EFDD703B002D08C9401D08C8416
:100A800003C001F0D89001320130D8B002D08C966A
:100A900001D08C8603C001F0D8900132D890013289
:100AA0000130D8B002D08C9801D08C8803C001F0FE
:100AB000D8900132D8900132D89001320130D8B0AC
:100AC00002D08C9A01D08C8A8C8200F000D000D0A9
:100AD0008C920D0E016EFC0EE82EFED7012EFCD777
:100AE000120037EC06F09EEC06F0A3EC06F08FEC5B
:100AF00006F0110E046E080E056E50EC06F000D0E4
:100B00001AEC04F02B6E2B50D8B4FAD7010EFFEC80
:100B100004F02B0E046E080E056E50EC06F02B5000
:100B20008DEC04F0190E016E000E026E200E036EA5
:100B3000080E046E2BC005F0066AC2EC05F0190E13
:100B4000016E000E026E66EC06F0D00E2B24296EAC
:100B50002A6AFF0E2A2229C001F02AC002F0000EE4
:100B6000046E640E036E7BEC06F001C007F002C059
:100B700008F0000E0A6E010E096E0EEC06F0C0D7EA
:100B800000EF00F0050E086E000E096E31D0250E44
:100B90000A18D8B404D012D0014A022A29D0000E73
:100BA000076E14D033D008C0D9FF09C0DAFFDF5078
:100BB0000A6E020E0826000E092200D001C0D9FFDD
:100BC00002C0DAFF0AC0DFFFE7D712D003C0F6FF8A
:100BD00004C0F7FF034A042A0800F5CF0AF00A50C0
:100BE000000AD8B413D0630AD8B4DDD7E7D700D051
:100BF00003C0F6FF04C0F7FF034A042A0800F5CF3C
:100C00000AF00A50D8B402D0C2D700D001C0D9FF30
:100C100002C0DAFF000EDF6E00D0120009B002D071
:100C20008A9201D08A82000E0D6E000E0C6E14D0D6
:100C30008A80070E0B6E7D0EE82EFED70B2EFCD79A
:100C400000F08A90070E0B6E7D0EE82EFED70B2E5D
:100C5000FCD700F00C4A0D2A07500C5C0D50800A9E
:100C60000B6E0850800A0B58D8A0E2D71200000E75
:100C7000956E820E046EDE0EE82EFED7042EFCD793
:100C8000020EFFEC04F0280EFFEC04F00C0EFFEC5B
:100C900004F0060EFFEC04F0010EFFEC04F012006D
:100CA0000BD004C0F6FF05C0F7FF0800F5508DEC2F
:100CB00004F0044A052A00D004C0F6FF05C0F7FF7F
:100CC0000800F5500009D8A4ECD712000CD000D0D1
:100CD000ACA2FED701C0D9FF02C0DAFFDF50AD6E73
:100CE000014A022A00D001C0D9FF02C0DAFFDF505A
:100CF000D8A4EED7120001500302F3CF05F0F4CFD1
:100D000006F001500402F350062602500302F3508D
:100D1000062605C001F006C002F000D01200948C37
:100D2000948E810EAF6EAC84AC98AB8EAC8AAB88DF
:100D30001200000EF86E000171EF05F0F00E946ED7
:0C0D4000000E826E12009390939212003D
:020000040020DA
:08000000FFFFFFFFFFFFFFFF00
:020000040030CA
:0E000000000C1E1EFF8181FF0FC00FE00F409D
:00000001FF
