:0400000003EF08F012
:100800000001000A006400E80310274E6976656C59
:100810003A2025640D0A004E6976656C3A20000086
:10082000110E146E000E156E9AD0250E1A18D8B43B
:1008300009D00DC0D9FF0EC0DAFF1AC0DFFF0D4A84
:100840000E2A8DD0000E166E04D097D015D087D00A
:1008500013D00FC0F6FF10C0F7FF0F4A102A080090
:10086000F5CF1AF01A50000AD8B487D0640AD8B469
:1008700003D00D0AD8A473D014C0D9FF15C0DAFF75
:10088000DECF18F0DDCF19F0020E1426000E15226F
:1008900019AE07D0030E1612186C191ED8B0192AFB
:1008A00000D0010E1A6E050E1A18D8B416D001D059
:1008B00014D01A50020D010EF324F66E080EF42027
:1008C000F76E0900F550185C0900F5501958D8A0CA
:1008D00004D001D002D01A2AE6D716C013F0030EB6
:1008E0001316D8B409D00DC0D9FF0EC0DAFF2D0EF3
:1008F000DF6E0D4A0E2A00D01AC017F02AD017500A
:10090000020D010EF324F66E080EF420F76E0900B6
:10091000F5CF03F00A00F5CF04F018C001F019C0BC
:1009200002F023EC07F001C008F002C009F0000E4D
:100930000B6E0A0E0A6E51EC07F00850300F1A6E5B
:100940000DC0D9FF0EC0DAFF1AC0DFFF0D4A0E2A14
:1009500000D017061728D8B402D0D1D700D00FC0C6
:10096000F6FF10C0F7FF0F4A102A0800F5CF1AF063
:100970001A50D8B402D059D700D00DC0D9FF0EC03C
:10098000DAFF000EDF6E00D0120002BE05D002506A
:1009900006E10104D8B003D00468056805D0000E54
:1009A000056E010E046E00D002AE05D0016C021E71
:1009B000D8B0022A00D0000E076E000E066E6AD074
:1009C00005BE35D0055003E10404D8A030D08C809A
:1009D0008C928C948C961A0E036EF80EE82EFED72D
:1009E000032EFCD700D08C908C828C948C961A0E9F
:1009F000036EF80EE82EFED7032EFCD700D08C90A5
:100A00008C928C848C961A0E036EF80EE82EFED70C
:100A1000032EFCD700D08C908C928C948C861A0E6E
:100A2000036EF80EE82EFED7032EFCD72FD08C9045
:100A30008C928C948C861A0E036EF80EE82EFED7DC
:100A4000032EFCD700D08C908C928C848C961A0E3E
:100A5000036EF80EE82EFED7032EFCD700D08C9044
:100A60008C828C948C961A0E036EF80EE82EFED7AC
:100A7000032EFCD700D08C808C928C948C961A0E0E
:100A8000036EF80EE82EFED7032EFCD700D000D060
:100A9000064A072A0150065C0750800A036E02507E
:100AA000800A0358D8A08CD712000F0E926EF00E59
:100AB000936E000E956E77EC07F012EC08F0FDECEB
:100AC00007F0000E376E000E366E36C001F037C0EC
:100AD00002F017EC08F0CEEC06F0336E3350D8B4C9
:100AE000FAD7D00E3324346E356AFF0E352235BE68
:100AF000F2D735BE06D03550EEE10A0E345CD8B0E0
:100B0000EAD736C01BF037C01CF01B1E1C1E1B4A48
:100B10001C2A34501B24016E35501C20026E000E1E
:100B2000046E640E036EDDEC07F001C031F002C00C
:100B300032F031C001F032C002F0C5EC04F034C034
:100B400036F035C037F036C001F037C002F017EC90
:100B500008F0F1EC07F0000E056E010E046E000EB9
:100B6000076E010E066E98EC07F0170E046E080E65
:100B7000056EB2EC07F03650300F08EC08F01D0E91
:100B80000D6E000E0E6E0B0E0F6E080E106E36C040
:100B900011F037C012F010EC04F01D0E016E000EC3
:100BA000026EC8EC07F097D700EF00F0036E82806A
:100BB00003C001F0013A0F0E0116010E01160146A5
:100BC000014682500118FB0B0118826E03C001F030
:100BD000050E026ED8900132022EFCD7010E0116CE
:100BE00001460146014682500118F70B0118826E3A
:100BF00003C001F0060E026ED8900132022EFCD71F
:100C0000010E0116013A82500118EF0B0118826E95
:100C1000016A03AE01D0012A010E0116013A014614
:100C200082500118DF0B0118826E0DEC08F003C032
:100C300001F0010E01160146014682500118FB0B1E
:100C40000118826E03C001F0D8900132010E011626
:100C500001460146014682500118F70B0118826EC9
:100C600003C001F0D8900132D8900132010E011674
:100C7000013A82500118EF0B0118826E03C001F097
:100C8000D8900132D8900132D8900132010E01166D
:100C9000013A014682500118DF0B0118826E0DECFB
:100CA00008F01200036E829003C001F0013A0F0EAB
:100CB0000116010E01160146014682500118FB0B78
:100CC0000118826E03C001F0050E026ED890013249
:100CD000022EFCD7010E0116014601460146825044
:100CE0000118F70B0118826E03C001F0060E026EA8
:100CF000D8900132022EFCD7010E0116013A825023
:100D00000118EF0B0118826E016A03AE01D0012AAF
:100D1000010E0116013A014682500118DF0B01183D
:100D2000826E0DEC08F003C001F0010E01160146C1
:100D3000014682500118FB0B0118826E03C001F0BE
:100D4000D8900132010E011601460146014682503B
:100D50000118F70B0118826E03C001F0D890013220
:100D6000D8900132010E0116013A82500118EF0BA2
:100D70000118826E03C001F0D8900132D890013280
:100D8000D8900132010E0116013A01468250011835
:100D9000DF0B0118826E0DEC08F01200000E036EDE
:100DA000000E056E000E046E05BE08D0055048E129
:100DB000040E045CD8B044D001D042D004C001F08D
:100DC000010E026E012A02D0D8900236012EFCD705
:100DD0000250F009936E04C001F0010E026E012A68
:100DE00002D0D8900236012EFCD70250FF0A8A6E3C
:100DF000340E016EF20EE82EFED7012EFCD780B025
:100E000004D00450310F036E00D080B204D00450DF
:100E1000330F036E00D080B404D00450350F036E3E
:100E200000D080B604D00450270F036E00D00350CA
:100E3000D8A406D001D004D0044A052AB5D700D0E2
:100E4000035000D01200000E066E000E056E035017
:100E50000410D8B421D0010E076E05D0D890033607
:100E60000436072A00D004BE02D0F8D700D0D890AC
:100E7000053606360350015C04500258D8A006D04F
:100E80000350015E0450025A058000D0D89004320D
:100E90000332072EECD700D005C001F006C002F0E7
:100EA00012000A500B10D8B41DD0010E0C6E05D0E4
:100EB000D8900A360B360C2A00D00BBE02D0F8D7D9
:100EC00000D00A50085C0B500958D8A005D00A5031
:100ED000085E0B50095A00D0D8900B320A320C2E03
:100EE000F0D700D008C008F009C009F01200000EC9
:100EF000946E340E046EF20EE82EFED7042EFCD74C
:100F0000020E52EC06F0280E52EC06F00C0E52ECDB
:100F100006F0060E52EC06F0010E52EC06F0060E3C
:100F2000046E300EE82EFED7042EFCD700D012003F
:100F3000000E096E000E086E04040510D8A402D03D
:100F40007F0E06D0020E04180510D8A407D0BF0EDD
:100F50000624086E000E0720096E00D0085052ECDF
:100F600006F012000BD004C0F6FF05C0F7FF080022
:100F7000F550D6EC05F0044A052A00D004C0F6FF6F
:100F800005C0F7FF0800F5500009D8A4ECD71200FF
:100F90000CD000D0ACA2FED701C0D9FF02C0DAFF4E
:100FA000DF50AD6E014A022A00D001C0D9FF02C055
:100FB000DAFFDF50D8A4EED7120001500302F3CFBE
:100FC00005F0F4CF06F001500402F350062602505B
:100FD0000302F350062605C001F006C002F000D05F
:100FE0001200010E52EC06F0060E046E300EE82ED2
:100FF000FED7042EFCD700D01200330EAF6EAC84A7
:10100000AB8EAC8A1200000EF86E000155EF05F0B1
:10101000046E0450D6EC05F01200828200D0829259
:1010200000D01200000E956E000E8C6E1200015062
:061030000F0B8C6E120094
:020000040020DA
:08000000FFFFFFFFFFFFFFFF00
:020000040030CA
:0E00000000051F1FFF8385FF0FC00FE00F409C
:00000001FF
